:100000000C945D000C9485000C9485000C94850084
:100010000C9485000C9485000C9485000C9485004C
:100020000C9485000C9485000C9485000C9485003C
:100030000C9485000C9485000C9485000C9485002C
:100040000C94E9020C9485000C94B7020C94910274
:100050000C9485000C9485000C9485000C9485000C
:100060000C9485000C9485000000000024002700FB
:100070002A0000000000250028002B0004040404CE
:100080000404040402020202020203030303030342
:10009000010204081020408001020408102001021F
:1000A00004081020000000080002010000030407FB
:1000B0000000000000000000330311241FBECFEF3A
:1000C000D8E0DEBFCDBF11E0A0E0B1E0E4E1FCE0AC
:1000D00002C005900D92A434B107D9F722E0A4E440
:1000E000B1E001C01D92A233B207E1F710E0CDE507
:1000F000D0E004C02197FE010E94DB05CC35D1077A
:10010000C9F70E9472030C9408060C940000E1EBFE
:10011000F0E02491EDE9F0E09491E9E8F0E0E49179
:10012000EE2309F43BC0222339F1233091F038F457
:100130002130A9F0223001F524B52F7D12C02730DF
:1001400091F02830A1F02430B9F4209180002F7D67
:1001500003C0209180002F77209380000DC024B52C
:100160002F7724BD09C02091B0002F7703C02091C4
:10017000B0002F7D2093B000F0E0EE0FFF1FEE588F
:10018000FF4FA591B4912FB7F894EC91811103C062
:1001900090959E2301C09E2B9C932FBF0895CF92D4
:1001A000DF92EF92FF920F931F93CF93DF936C0137
:1001B0007A018B01C0E0D0E0CE15DF0589F0D801CF
:1001C0006D918D01D601ED91FC910190F081E02DB2
:1001D000C6010995892B11F47E0102C02196ECCF4E
:1001E000C701DF91CF911F910F91FF90EF90DF90AA
:1001F000CF900895FC01918D828D981761F0828DCA
:10020000DF01A80FB11D5D968C91928D9F5F9F734A
:10021000928F90E008958FEF9FEF0895FC01918DEC
:10022000828D981731F0828DE80FF11D858D90E059
:1002300008958FEF9FEF0895FC01918D228D892FF6
:1002400090E0805C9F4F821B91098F7399270895DE
:100250008DE491E00E941C0121E0892B09F420E04B
:10026000822F0895FC01848DDF01A80FB11DA35AD0
:10027000BF4F2C91848D90E001968F739927848FC6
:10028000A689B7892C93A089B1898C9180648C93BD
:10029000938D848D981306C00288F389E02D8081A8
:1002A0008F7D80830895EF92FF920F931F93CF93DA
:1002B000DF93EC0181E0888F9B8D8C8D981305C0B6
:1002C000E889F989808185FD24C0F62E0B8D10E028
:1002D0000F5F1F4F0F731127E02E8C8DE8120CC09B
:1002E0000FB607FCFACFE889F989808185FFF5CF41
:1002F000CE010E943201F1CF8B8DFE01E80FF11D7E
:10030000E35AFF4FF0820B8FEA89FB89808180627C
:1003100007C0EE89FF896083E889F989808180645C
:10032000808381E090E0DF91CF911F910F91FF904A
:10033000EF900895CF93DF93EC01888D8823C9F067
:10034000EA89FB89808185FD05C0A889B9898C91DE
:1003500086FD0FC00FB607FCF5CF808185FFF2CF79
:10036000A889B9898C9185FFEDCFCE010E94320119
:10037000E7CFDF91CF91089580E090E0892B29F0BD
:100380000E94280181110C94000008953FB7F89451
:100390008091490190914A01A0914B01B0914C018B
:1003A00026B5A89B05C02F3F19F00196A11DB11DD0
:1003B0003FBFBA2FA92F982F8827820F911DA11D0B
:1003C000B11DBC01CD0142E0660F771F881F991F48
:1003D0004A95D1F708958F929F92AF92BF92CF9294
:1003E000DF92EF92FF926B017C010E94C6014B01EC
:1003F0005C01C114D104E104F104F1F00E94C601D2
:10040000DC01CB0188199909AA09BB09883E9340F0
:10041000A105B10570F321E0C21AD108E108F10885
:1004200088EE880E83E0981EA11CB11CC114D10473
:10043000E104F10419F7DDCFFF90EF90DF90CF904A
:10044000BF90AF909F908F9008952FB7F8946091D0
:1004500045017091460180914701909148012FBF5D
:1004600008950E94E1056115710579F0FB01019085
:100470000020E9F73197AF01461B570BDC01ED91E6
:10048000FC910280F381E02D099480E090E00895D2
:100490004F925F926F927F92EF92FF920F931F9312
:1004A000CF93DF93CDB7DEB7A1970FB6F894DEBF39
:1004B0000FBECDBF7C01FA01CB0119A2223008F496
:1004C0002AE08E010F5D1F4F422E512C612C712CA2
:1004D000BF01A30192010E94E605F901CA01015082
:1004E00011096A3014F4605D01C0695CD8016C9335
:1004F000232B242B252B61F7B801C7010E9433025F
:10050000A1960FB6F894DEBF0FBECDBFDF91CF919D
:100510001F910F91FF90EF907F906F905F904F90A1
:1005200008951F920F920FB60F9211242F933F93AD
:100530004F935F936F937F938F939F93AF93BF93EB
:10054000EF93FF938DE491E00E943201FF91EF91D0
:10055000BF91AF919F918F917F916F915F914F91DB
:100560003F912F910F900FBE0F901F9018951F92E3
:100570000F920FB60F9211242F938F939F93EF93A7
:10058000FF93E0915D01F0915E018081E091630154
:10059000F091640182FD12C09081809166018F5FAD
:1005A0008F7320916701821751F0E0916601F0E0AE
:1005B000E35BFE4F958F8093660101C08081FF91C0
:1005C000EF919F918F912F910F900FBE0F901F90E1
:1005D00018951F920F920FB60F9211242F933F93ED
:1005E0008F939F93AF93BF93809145019091460164
:1005F000A0914701B09148013091440123E0230FBD
:100600002D3720F40196A11DB11D05C026E8230F4A
:100610000296A11DB11D2093440180934501909342
:100620004601A0934701B093480180914901909100
:100630004A01A0914B01B0914C010196A11DB11D41
:100640008093490190934A01A0934B01B0934C01D0
:10065000BF91AF919F918F913F912F910F900FBEBE
:100660000F901F901895EDE4F1E01382128288EE4E
:1006700093E0A0E0B0E084839583A683B78384E011
:1006800091E09183808385EC90E09587848784EC6A
:1006900090E09787868780EC90E0918B808B81EC4F
:1006A00090E0938B828B82EC90E0958B848B86EC30
:1006B00090E0978B868B118E128E138E148EEAEE3D
:1006C000F1E0168217821086118612861386148630
:1006D000158616861786108A118A128A138A148A3A
:1006E000158A0895789484B5826084BD84B581604C
:1006F00084BD85B5826085BD85B5816085BD8091ED
:100700006E00816080936E00109281008091810064
:10071000826080938100809181008160809381005C
:10072000809180008160809380008091B10084601E
:100730008093B1008091B00081608093B00080917F
:100740007A00846080937A0080917A00826080933E
:100750007A0080917A00816080937A0080917A009B
:10076000806880937A001092C10010922E0210923D
:100770002F0210923002109231021092EC0110926E
:10078000ED011092EE011092EF0168EB7BE080E04A
:1007900090E00E94EB018DE491E090932D02809314
:1007A0002C02E0915D01F0915E0182E08083E09196
:1007B0005901F0915A011082E0915B01F0915C01C6
:1007C00080E1808310926501E0916101F091620106
:1007D00086E08083E0915F01F0916001808180611B
:1007E0008083E0915F01F091600180818860808367
:1007F000E0915F01F0916001808180688083E091E9
:100800005F01F091600180818F7D80830E942502CD
:100810006093EC017093ED018093EE019093EF01F2
:1008200060E171E080912C0290912D020E943302D0
:100830006AE070E080E090E00E94EB0181E080934C
:100840000002EDE9F0E02491E9E8F0E084918823EA
:1008500099F090E0880F991FFC01E859FF4FA5918E
:10086000B491FC01EE58FF4F859194918FB7F894A5
:10087000EC91E22BEC938FBF84EF882E9924939414
:10088000A12CB12CC5E68092F8019092F901A092BA
:10089000FA01B092FB011092FC011092FD0110923E
:1008A000FE011092FF018091F0019091F101A09161
:1008B000F201B091F3018093F4019093F501A093BC
:1008C000F601B093F7010E9425026093F001709346
:1008D000F1018093F2019093F30165E070E080E014
:1008E00090E00E94EB016AE070E080E090E00E94FE
:1008F000EB01C093010280910102833609F43CC1EF
:10090000853609F0C6C08091FC019091FD01A0914F
:10091000FE01B091FF010196A11DB11D8093FC0164
:100920009093FD01A093FE01B093FF014091F80167
:100930005091F9016091FA017091FB01452B462B12
:10094000472B29F4892B8A2B8B2B09F0A2C00E94FC
:100950002502C090EC01D090ED01E090EE01F09006
:10096000EF01DC01CB018C199D09AE09BF0984366A
:100970009105A105B10538F463E070E080E090E0F6
:100980000E94EB01E4CF0E9425026093EC0170937A
:10099000ED018093EE019093EF010E9425026B011F
:1009A0007C0162E271E080912C0290912D020E9404
:1009B00033022AE041E050E060E070E080912C02D8
:1009C00090912D020E94480269E271E080912C0210
:1009D00090912D020E9433022AE0B701A601809176
:1009E0002C0290912D020E9448026BE271E08091EE
:1009F0002C0290912D020E9433028091F00190917F
:100A0000F101A091F201B091F301B701A601481BD9
:100A1000590B6A0B7B0B2AE080912C0290912D02DE
:100A20000E9448026BE271E080912C0290912D02AD
:100A30000E9433024091F0015091F1016091F20166
:100A40007091F3018091F4019091F501A091F6016C
:100A5000B091F701481B590B6A0B7B0B2AE0809180
:100A60002C0290912D020E944802E0902C02F090FE
:100A70002D026DE271E0C7010E94330261E471E072
:100A8000C7010E94330264EF71E080E090E00E94B1
:100A9000EB016AE070E080E090E00E94EB01809161
:100AA0000002882309F464C080912C0290912D02E9
:100AB000DC01ED91FC910480F581E02D0995811117
:100AC00017C085E656C080912C0290912D02DC0162
:100AD000ED91FC910680F781E02D0995883609F4A7
:100AE00047C0A0F0813709F443C0863709F441C0FC
:100AF00080912C0290912D02DC01ED91FC910480FB
:100B0000F581E02D09958111DECFDBCF883571F1BC
:100B1000833671F70E9425026093EC017093ED011A
:100B20008093EE019093EF0164E371E080912C02D9
:100B300090912D020E9433022AE041E050E060E0F3
:100B400070E080912C0290912D020E9448026BE38C
:100B500071E080912C0290912D020E94330262E399
:100B600070E080E090E00E94EB0102C01092000271
:100B700083E680930102BFCE0E9425026093F001BC
:100B80007093F1018093F2019093F30181E00E9450
:100B9000870068EE73E080E090E00E94EB0180E067
:100BA0000E94870068EE73E080E090E00E94EB0115
:100BB0000E94BC0168CEEE0FFF1F0590F491E02D5E
:100BC000099481E090E0F8940C940806A1E21A2EB2
:100BD000AA1BBB1BFD010DC0AA1FBB1FEE1FFF1FE1
:100BE000A217B307E407F50720F0A21BB30BE40B31
:100BF000F50B661F771F881F991F1A9469F7609578
:100C00007095809590959B01AC01BD01CF01089531
:040C1000F894FFCF86
:100C1400000000005301CF001C01FA000E019A01EC
:100C2400564D4450565F317C315F564D4450560DFD
:100C34000A00564D4450455F003A323A005F564D23
:100C440044504500564D4450435F005F564D445058
:040C5400430D0A0042
:00000001FF
